{
  "_format": "hh-sol-artifact-1",
  "contractName": "BugsDepositVault",
  "sourceName": "contracts/BugsDepositVault.sol",
  "abi": [
    {
      "inputs": [
        {
          "internalType": "address",
          "name": "wbnbAddress",
          "type": "address"
        },
        {
          "internalType": "address",
          "name": "vaultKeeper",
          "type": "address"
        },
        {
          "internalType": "string",
          "name": "tokenName",
          "type": "string"
        },
        {
          "internalType": "string",
          "name": "tokenSymbol",
          "type": "string"
        },
        {
          "components": [
            {
              "internalType": "uint8",
              "name": "decimals",
              "type": "uint8"
            },
            {
              "internalType": "address",
              "name": "asset",
              "type": "address"
            },
            {
              "internalType": "uint56",
              "name": "minimumSupply",
              "type": "uint56"
            },
            {
              "internalType": "uint104",
              "name": "cap",
              "type": "uint104"
            }
          ],
          "internalType": "struct Vault.VaultParams",
          "name": "vaultConfiguration",
          "type": "tuple"
        }
      ],
      "stateMutability": "nonpayable",
      "type": "constructor"
    },
    {
      "inputs": [
        {
          "internalType": "address",
          "name": "spender",
          "type": "address"
        },
        {
          "internalType": "uint256",
          "name": "allowance",
          "type": "uint256"
        },
        {
          "internalType": "uint256",
          "name": "needed",
          "type": "uint256"
        }
      ],
      "name": "ERC20InsufficientAllowance",
      "type": "error"
    },
    {
      "inputs": [
        {
          "internalType": "address",
          "name": "sender",
          "type": "address"
        },
        {
          "internalType": "uint256",
          "name": "balance",
          "type": "uint256"
        },
        {
          "internalType": "uint256",
          "name": "needed",
          "type": "uint256"
        }
      ],
      "name": "ERC20InsufficientBalance",
      "type": "error"
    },
    {
      "inputs": [
        {
          "internalType": "address",
          "name": "approver",
          "type": "address"
        }
      ],
      "name": "ERC20InvalidApprover",
      "type": "error"
    },
    {
      "inputs": [
        {
          "internalType": "address",
          "name": "receiver",
          "type": "address"
        }
      ],
      "name": "ERC20InvalidReceiver",
      "type": "error"
    },
    {
      "inputs": [
        {
          "internalType": "address",
          "name": "sender",
          "type": "address"
        }
      ],
      "name": "ERC20InvalidSender",
      "type": "error"
    },
    {
      "inputs": [
        {
          "internalType": "address",
          "name": "spender",
          "type": "address"
        }
      ],
      "name": "ERC20InvalidSpender",
      "type": "error"
    },
    {
      "inputs": [
        {
          "internalType": "address",
          "name": "owner",
          "type": "address"
        }
      ],
      "name": "OwnableInvalidOwner",
      "type": "error"
    },
    {
      "inputs": [
        {
          "internalType": "address",
          "name": "account",
          "type": "address"
        }
      ],
      "name": "OwnableUnauthorizedAccount",
      "type": "error"
    },
    {
      "inputs": [],
      "name": "ReentrancyGuardReentrantCall",
      "type": "error"
    },
    {
      "inputs": [
        {
          "internalType": "address",
          "name": "token",
          "type": "address"
        }
      ],
      "name": "SafeERC20FailedOperation",
      "type": "error"
    },
    {
      "anonymous": false,
      "inputs": [
        {
          "indexed": true,
          "internalType": "address",
          "name": "owner",
          "type": "address"
        },
        {
          "indexed": true,
          "internalType": "address",
          "name": "spender",
          "type": "address"
        },
        {
          "indexed": false,
          "internalType": "uint256",
          "name": "value",
          "type": "uint256"
        }
      ],
      "name": "Approval",
      "type": "event"
    },
    {
      "anonymous": false,
      "inputs": [
        {
          "indexed": false,
          "internalType": "uint256",
          "name": "oldCap",
          "type": "uint256"
        },
        {
          "indexed": false,
          "internalType": "uint256",
          "name": "newCap",
          "type": "uint256"
        }
      ],
      "name": "CapSet",
      "type": "event"
    },
    {
      "anonymous": false,
      "inputs": [
        {
          "indexed": true,
          "internalType": "address",
          "name": "user",
          "type": "address"
        },
        {
          "indexed": false,
          "internalType": "uint256",
          "name": "amount",
          "type": "uint256"
        },
        {
          "indexed": true,
          "internalType": "uint256",
          "name": "round",
          "type": "uint256"
        },
        {
          "indexed": false,
          "internalType": "uint256",
          "name": "timestamp",
          "type": "uint256"
        },
        {
          "indexed": false,
          "internalType": "uint256",
          "name": "userTotalDepositInRound",
          "type": "uint256"
        }
      ],
      "name": "Deposit",
      "type": "event"
    },
    {
      "anonymous": false,
      "inputs": [
        {
          "indexed": true,
          "internalType": "address",
          "name": "user",
          "type": "address"
        },
        {
          "indexed": false,
          "internalType": "uint256",
          "name": "shares",
          "type": "uint256"
        },
        {
          "indexed": true,
          "internalType": "uint256",
          "name": "round",
          "type": "uint256"
        },
        {
          "indexed": false,
          "internalType": "uint256",
          "name": "timestamp",
          "type": "uint256"
        },
        {
          "indexed": false,
          "internalType": "uint256",
          "name": "userTotalWithdrawShares",
          "type": "uint256"
        }
      ],
      "name": "InitiateWithdraw",
      "type": "event"
    },
    {
      "anonymous": false,
      "inputs": [
        {
          "indexed": true,
          "internalType": "address",
          "name": "user",
          "type": "address"
        },
        {
          "indexed": false,
          "internalType": "uint256",
          "name": "amount",
          "type": "uint256"
        },
        {
          "indexed": true,
          "internalType": "uint256",
          "name": "round",
          "type": "uint256"
        },
        {
          "indexed": false,
          "internalType": "uint256",
          "name": "timestamp",
          "type": "uint256"
        },
        {
          "indexed": false,
          "internalType": "uint256",
          "name": "remainingDepositAmount",
          "type": "uint256"
        }
      ],
      "name": "InstantWithdraw",
      "type": "event"
    },
    {
      "anonymous": false,
      "inputs": [
        {
          "indexed": true,
          "internalType": "address",
          "name": "oldKeeper",
          "type": "address"
        },
        {
          "indexed": true,
          "internalType": "address",
          "name": "newKeeper",
          "type": "address"
        },
        {
          "indexed": true,
          "internalType": "address",
          "name": "updatedBy",
          "type": "address"
        },
        {
          "indexed": false,
          "internalType": "uint256",
          "name": "timestamp",
          "type": "uint256"
        }
      ],
      "name": "KeeperUpdated",
      "type": "event"
    },
    {
      "anonymous": false,
      "inputs": [
        {
          "indexed": true,
          "internalType": "address",
          "name": "previousOwner",
          "type": "address"
        },
        {
          "indexed": true,
          "internalType": "address",
          "name": "newOwner",
          "type": "address"
        }
      ],
      "name": "OwnershipTransferStarted",
      "type": "event"
    },
    {
      "anonymous": false,
      "inputs": [
        {
          "indexed": true,
          "internalType": "address",
          "name": "previousOwner",
          "type": "address"
        },
        {
          "indexed": true,
          "internalType": "address",
          "name": "newOwner",
          "type": "address"
        }
      ],
      "name": "OwnershipTransferred",
      "type": "event"
    },
    {
      "anonymous": false,
      "inputs": [
        {
          "indexed": true,
          "internalType": "address",
          "name": "user",
          "type": "address"
        },
        {
          "indexed": false,
          "internalType": "uint256",
          "name": "shares",
          "type": "uint256"
        },
        {
          "indexed": true,
          "internalType": "uint256",
          "name": "round",
          "type": "uint256"
        },
        {
          "indexed": false,
          "internalType": "uint256",
          "name": "timestamp",
          "type": "uint256"
        },
        {
          "indexed": false,
          "internalType": "uint256",
          "name": "userShareBalanceAfter",
          "type": "uint256"
        }
      ],
      "name": "Redeem",
      "type": "event"
    },
    {
      "anonymous": false,
      "inputs": [
        {
          "indexed": false,
          "internalType": "uint256",
          "name": "round",
          "type": "uint256"
        },
        {
          "indexed": false,
          "internalType": "uint256",
          "name": "pricePerShare",
          "type": "uint256"
        },
        {
          "indexed": false,
          "internalType": "uint256",
          "name": "lockedAmount",
          "type": "uint256"
        }
      ],
      "name": "RollRound",
      "type": "event"
    },
    {
      "anonymous": false,
      "inputs": [
        {
          "indexed": true,
          "internalType": "uint256",
          "name": "completedRound",
          "type": "uint256"
        },
        {
          "indexed": false,
          "internalType": "uint256",
          "name": "newPricePerShare",
          "type": "uint256"
        },
        {
          "indexed": false,
          "internalType": "uint256",
          "name": "totalLockedAmount",
          "type": "uint256"
        },
        {
          "indexed": false,
          "internalType": "uint256",
          "name": "newSharesMinted",
          "type": "uint256"
        },
        {
          "indexed": false,
          "internalType": "uint256",
          "name": "timestamp",
          "type": "uint256"
        }
      ],
      "name": "RoundTransitionComplete",
      "type": "event"
    },
    {
      "anonymous": false,
      "inputs": [
        {
          "indexed": true,
          "internalType": "uint256",
          "name": "round",
          "type": "uint256"
        },
        {
          "indexed": false,
          "internalType": "uint256",
          "name": "oldPricePerShare",
          "type": "uint256"
        },
        {
          "indexed": false,
          "internalType": "uint256",
          "name": "newPricePerShare",
          "type": "uint256"
        },
        {
          "indexed": false,
          "internalType": "uint256",
          "name": "timestamp",
          "type": "uint256"
        }
      ],
      "name": "SharePriceUpdated",
      "type": "event"
    },
    {
      "anonymous": false,
      "inputs": [
        {
          "indexed": true,
          "internalType": "address",
          "name": "from",
          "type": "address"
        },
        {
          "indexed": true,
          "internalType": "address",
          "name": "to",
          "type": "address"
        },
        {
          "indexed": false,
          "internalType": "uint256",
          "name": "value",
          "type": "uint256"
        }
      ],
      "name": "Transfer",
      "type": "event"
    },
    {
      "anonymous": false,
      "inputs": [
        {
          "indexed": true,
          "internalType": "address",
          "name": "user",
          "type": "address"
        },
        {
          "indexed": false,
          "internalType": "uint256",
          "name": "walletShares",
          "type": "uint256"
        },
        {
          "indexed": false,
          "internalType": "uint256",
          "name": "unredeemedShares",
          "type": "uint256"
        },
        {
          "indexed": false,
          "internalType": "uint256",
          "name": "pendingDepositAmount",
          "type": "uint256"
        },
        {
          "indexed": false,
          "internalType": "uint256",
          "name": "queuedWithdrawShares",
          "type": "uint256"
        },
        {
          "indexed": false,
          "internalType": "uint256",
          "name": "timestamp",
          "type": "uint256"
        }
      ],
      "name": "UserBalanceUpdated",
      "type": "event"
    },
    {
      "anonymous": false,
      "inputs": [
        {
          "indexed": true,
          "internalType": "bool",
          "name": "isPublic",
          "type": "bool"
        },
        {
          "indexed": true,
          "internalType": "address",
          "name": "changedBy",
          "type": "address"
        },
        {
          "indexed": false,
          "internalType": "uint256",
          "name": "timestamp",
          "type": "uint256"
        }
      ],
      "name": "VaultAccessModeChanged",
      "type": "event"
    },
    {
      "anonymous": false,
      "inputs": [
        {
          "indexed": false,
          "internalType": "uint256",
          "name": "oldCap",
          "type": "uint256"
        },
        {
          "indexed": false,
          "internalType": "uint256",
          "name": "newCap",
          "type": "uint256"
        },
        {
          "indexed": true,
          "internalType": "address",
          "name": "updatedBy",
          "type": "address"
        },
        {
          "indexed": false,
          "internalType": "uint256",
          "name": "timestamp",
          "type": "uint256"
        }
      ],
      "name": "VaultCapUpdated",
      "type": "event"
    },
    {
      "anonymous": false,
      "inputs": [
        {
          "indexed": false,
          "internalType": "uint256",
          "name": "availableBalance",
          "type": "uint256"
        },
        {
          "indexed": false,
          "internalType": "uint256",
          "name": "lockedBalance",
          "type": "uint256"
        },
        {
          "indexed": false,
          "internalType": "uint256",
          "name": "queuedWithdrawAmount",
          "type": "uint256"
        },
        {
          "indexed": false,
          "internalType": "uint256",
          "name": "timestamp",
          "type": "uint256"
        }
      ],
      "name": "VaultLiquidityStatus",
      "type": "event"
    },
    {
      "anonymous": false,
      "inputs": [
        {
          "indexed": false,
          "internalType": "uint256",
          "name": "totalValueLocked",
          "type": "uint256"
        },
        {
          "indexed": false,
          "internalType": "uint256",
          "name": "totalSharesSupply",
          "type": "uint256"
        },
        {
          "indexed": false,
          "internalType": "uint256",
          "name": "pendingDeposits",
          "type": "uint256"
        },
        {
          "indexed": false,
          "internalType": "uint256",
          "name": "queuedWithdrawAmount",
          "type": "uint256"
        },
        {
          "indexed": false,
          "internalType": "uint256",
          "name": "timestamp",
          "type": "uint256"
        }
      ],
      "name": "VaultMetricsUpdated",
      "type": "event"
    },
    {
      "anonymous": false,
      "inputs": [
        {
          "indexed": true,
          "internalType": "bytes32",
          "name": "oldMerkleRoot",
          "type": "bytes32"
        },
        {
          "indexed": true,
          "internalType": "bytes32",
          "name": "newMerkleRoot",
          "type": "bytes32"
        },
        {
          "indexed": true,
          "internalType": "address",
          "name": "updatedBy",
          "type": "address"
        },
        {
          "indexed": false,
          "internalType": "uint256",
          "name": "timestamp",
          "type": "uint256"
        }
      ],
      "name": "WhitelistUpdated",
      "type": "event"
    },
    {
      "anonymous": false,
      "inputs": [
        {
          "indexed": true,
          "internalType": "address",
          "name": "user",
          "type": "address"
        },
        {
          "indexed": false,
          "internalType": "uint256",
          "name": "amount",
          "type": "uint256"
        },
        {
          "indexed": false,
          "internalType": "uint256",
          "name": "shares",
          "type": "uint256"
        },
        {
          "indexed": true,
          "internalType": "uint256",
          "name": "withdrawRound",
          "type": "uint256"
        },
        {
          "indexed": false,
          "internalType": "uint256",
          "name": "timestamp",
          "type": "uint256"
        },
        {
          "indexed": false,
          "internalType": "uint256",
          "name": "pricePerShareUsed",
          "type": "uint256"
        }
      ],
      "name": "Withdraw",
      "type": "event"
    },
    {
      "inputs": [],
      "name": "WBNB",
      "outputs": [
        {
          "internalType": "address",
          "name": "",
          "type": "address"
        }
      ],
      "stateMutability": "view",
      "type": "function"
    },
    {
      "inputs": [],
      "name": "acceptOwnership",
      "outputs": [],
      "stateMutability": "nonpayable",
      "type": "function"
    },
    {
      "inputs": [
        {
          "internalType": "address",
          "name": "account",
          "type": "address"
        }
      ],
      "name": "accountVaultBalance",
      "outputs": [
        {
          "internalType": "uint256",
          "name": "",
          "type": "uint256"
        }
      ],
      "stateMutability": "view",
      "type": "function"
    },
    {
      "inputs": [
        {
          "internalType": "address",
          "name": "owner",
          "type": "address"
        },
        {
          "internalType": "address",
          "name": "spender",
          "type": "address"
        }
      ],
      "name": "allowance",
      "outputs": [
        {
          "internalType": "uint256",
          "name": "",
          "type": "uint256"
        }
      ],
      "stateMutability": "view",
      "type": "function"
    },
    {
      "inputs": [
        {
          "internalType": "address",
          "name": "spender",
          "type": "address"
        },
        {
          "internalType": "uint256",
          "name": "value",
          "type": "uint256"
        }
      ],
      "name": "approve",
      "outputs": [
        {
          "internalType": "bool",
          "name": "",
          "type": "bool"
        }
      ],
      "stateMutability": "nonpayable",
      "type": "function"
    },
    {
      "inputs": [
        {
          "internalType": "address",
          "name": "account",
          "type": "address"
        }
      ],
      "name": "balanceOf",
      "outputs": [
        {
          "internalType": "uint256",
          "name": "",
          "type": "uint256"
        }
      ],
      "stateMutability": "view",
      "type": "function"
    },
    {
      "inputs": [
        {
          "internalType": "address",
          "name": "account",
          "type": "address"
        },
        {
          "internalType": "bytes32[]",
          "name": "proof",
          "type": "bytes32[]"
        }
      ],
      "name": "canDeposit",
      "outputs": [
        {
          "internalType": "bool",
          "name": "",
          "type": "bool"
        }
      ],
      "stateMutability": "view",
      "type": "function"
    },
    {
      "inputs": [],
      "name": "cap",
      "outputs": [
        {
          "internalType": "uint256",
          "name": "",
          "type": "uint256"
        }
      ],
      "stateMutability": "view",
      "type": "function"
    },
    {
      "inputs": [],
      "name": "completeWithdraw",
      "outputs": [],
      "stateMutability": "nonpayable",
      "type": "function"
    },
    {
      "inputs": [],
      "name": "currentQueuedWithdrawShares",
      "outputs": [
        {
          "internalType": "uint256",
          "name": "",
          "type": "uint256"
        }
      ],
      "stateMutability": "view",
      "type": "function"
    },
    {
      "inputs": [],
      "name": "decimals",
      "outputs": [
        {
          "internalType": "uint8",
          "name": "",
          "type": "uint8"
        }
      ],
      "stateMutability": "view",
      "type": "function"
    },
    {
      "inputs": [
        {
          "internalType": "uint256",
          "name": "amount",
          "type": "uint256"
        }
      ],
      "name": "deposit",
      "outputs": [],
      "stateMutability": "nonpayable",
      "type": "function"
    },
    {
      "inputs": [],
      "name": "depositBNB",
      "outputs": [],
      "stateMutability": "payable",
      "type": "function"
    },
    {
      "inputs": [
        {
          "internalType": "address",
          "name": "creditor",
          "type": "address"
        }
      ],
      "name": "depositBNBFor",
      "outputs": [],
      "stateMutability": "payable",
      "type": "function"
    },
    {
      "inputs": [
        {
          "internalType": "uint256",
          "name": "amount",
          "type": "uint256"
        },
        {
          "internalType": "address",
          "name": "creditor",
          "type": "address"
        }
      ],
      "name": "depositFor",
      "outputs": [],
      "stateMutability": "nonpayable",
      "type": "function"
    },
    {
      "inputs": [
        {
          "internalType": "address",
          "name": "",
          "type": "address"
        }
      ],
      "name": "depositReceipts",
      "outputs": [
        {
          "internalType": "uint16",
          "name": "round",
          "type": "uint16"
        },
        {
          "internalType": "uint104",
          "name": "amount",
          "type": "uint104"
        },
        {
          "internalType": "uint128",
          "name": "unredeemedShares",
          "type": "uint128"
        }
      ],
      "stateMutability": "view",
      "type": "function"
    },
    {
      "inputs": [
        {
          "internalType": "uint256",
          "name": "currentBalance",
          "type": "uint256"
        }
      ],
      "name": "getCurrQueuedWithdrawAmount",
      "outputs": [
        {
          "internalType": "uint256",
          "name": "",
          "type": "uint256"
        }
      ],
      "stateMutability": "view",
      "type": "function"
    },
    {
      "inputs": [
        {
          "internalType": "uint256",
          "name": "numShares",
          "type": "uint256"
        }
      ],
      "name": "initiateWithdraw",
      "outputs": [],
      "stateMutability": "nonpayable",
      "type": "function"
    },
    {
      "inputs": [],
      "name": "isPublic",
      "outputs": [
        {
          "internalType": "bool",
          "name": "",
          "type": "bool"
        }
      ],
      "stateMutability": "view",
      "type": "function"
    },
    {
      "inputs": [],
      "name": "keeper",
      "outputs": [
        {
          "internalType": "address",
          "name": "",
          "type": "address"
        }
      ],
      "stateMutability": "view",
      "type": "function"
    },
    {
      "inputs": [],
      "name": "lastQueuedWithdrawAmount",
      "outputs": [
        {
          "internalType": "uint256",
          "name": "",
          "type": "uint256"
        }
      ],
      "stateMutability": "view",
      "type": "function"
    },
    {
      "inputs": [],
      "name": "maxRedeem",
      "outputs": [],
      "stateMutability": "nonpayable",
      "type": "function"
    },
    {
      "inputs": [],
      "name": "merkleRoot",
      "outputs": [
        {
          "internalType": "bytes32",
          "name": "",
          "type": "bytes32"
        }
      ],
      "stateMutability": "view",
      "type": "function"
    },
    {
      "inputs": [],
      "name": "name",
      "outputs": [
        {
          "internalType": "string",
          "name": "",
          "type": "string"
        }
      ],
      "stateMutability": "view",
      "type": "function"
    },
    {
      "inputs": [],
      "name": "owner",
      "outputs": [
        {
          "internalType": "address",
          "name": "",
          "type": "address"
        }
      ],
      "stateMutability": "view",
      "type": "function"
    },
    {
      "inputs": [],
      "name": "pendingOwner",
      "outputs": [
        {
          "internalType": "address",
          "name": "",
          "type": "address"
        }
      ],
      "stateMutability": "view",
      "type": "function"
    },
    {
      "inputs": [],
      "name": "pricePerShare",
      "outputs": [
        {
          "internalType": "uint256",
          "name": "",
          "type": "uint256"
        }
      ],
      "stateMutability": "view",
      "type": "function"
    },
    {
      "inputs": [
        {
          "internalType": "uint256",
          "name": "amount",
          "type": "uint256"
        },
        {
          "internalType": "bytes32[]",
          "name": "proof",
          "type": "bytes32[]"
        }
      ],
      "name": "privateDeposit",
      "outputs": [],
      "stateMutability": "nonpayable",
      "type": "function"
    },
    {
      "inputs": [
        {
          "internalType": "bytes32[]",
          "name": "proof",
          "type": "bytes32[]"
        }
      ],
      "name": "privateDepositBNB",
      "outputs": [],
      "stateMutability": "payable",
      "type": "function"
    },
    {
      "inputs": [
        {
          "internalType": "uint256",
          "name": "numShares",
          "type": "uint256"
        }
      ],
      "name": "redeem",
      "outputs": [],
      "stateMutability": "nonpayable",
      "type": "function"
    },
    {
      "inputs": [],
      "name": "renounceOwnership",
      "outputs": [],
      "stateMutability": "nonpayable",
      "type": "function"
    },
    {
      "inputs": [
        {
          "internalType": "uint256",
          "name": "currentBalance",
          "type": "uint256"
        }
      ],
      "name": "rollToNextRound",
      "outputs": [],
      "stateMutability": "nonpayable",
      "type": "function"
    },
    {
      "inputs": [],
      "name": "round",
      "outputs": [
        {
          "internalType": "uint256",
          "name": "",
          "type": "uint256"
        }
      ],
      "stateMutability": "view",
      "type": "function"
    },
    {
      "inputs": [
        {
          "internalType": "uint256",
          "name": "",
          "type": "uint256"
        }
      ],
      "name": "roundPricePerShare",
      "outputs": [
        {
          "internalType": "uint256",
          "name": "",
          "type": "uint256"
        }
      ],
      "stateMutability": "view",
      "type": "function"
    },
    {
      "inputs": [
        {
          "internalType": "uint256",
          "name": "newCap",
          "type": "uint256"
        }
      ],
      "name": "setCap",
      "outputs": [],
      "stateMutability": "nonpayable",
      "type": "function"
    },
    {
      "inputs": [
        {
          "internalType": "bytes32",
          "name": "_merkleRoot",
          "type": "bytes32"
        }
      ],
      "name": "setMerkleRoot",
      "outputs": [],
      "stateMutability": "nonpayable",
      "type": "function"
    },
    {
      "inputs": [
        {
          "internalType": "address",
          "name": "newKeeper",
          "type": "address"
        }
      ],
      "name": "setNewKeeper",
      "outputs": [],
      "stateMutability": "nonpayable",
      "type": "function"
    },
    {
      "inputs": [
        {
          "internalType": "bool",
          "name": "_isPublic",
          "type": "bool"
        }
      ],
      "name": "setPublic",
      "outputs": [],
      "stateMutability": "nonpayable",
      "type": "function"
    },
    {
      "inputs": [
        {
          "components": [
            {
              "internalType": "uint8",
              "name": "decimals",
              "type": "uint8"
            },
            {
              "internalType": "address",
              "name": "asset",
              "type": "address"
            },
            {
              "internalType": "uint56",
              "name": "minimumSupply",
              "type": "uint56"
            },
            {
              "internalType": "uint104",
              "name": "cap",
              "type": "uint104"
            }
          ],
          "internalType": "struct Vault.VaultParams",
          "name": "newVaultParams",
          "type": "tuple"
        }
      ],
      "name": "setVaultParams",
      "outputs": [],
      "stateMutability": "nonpayable",
      "type": "function"
    },
    {
      "inputs": [
        {
          "internalType": "address",
          "name": "account",
          "type": "address"
        }
      ],
      "name": "shareBalances",
      "outputs": [
        {
          "internalType": "uint256",
          "name": "heldByAccount",
          "type": "uint256"
        },
        {
          "internalType": "uint256",
          "name": "heldByVault",
          "type": "uint256"
        }
      ],
      "stateMutability": "view",
      "type": "function"
    },
    {
      "inputs": [
        {
          "internalType": "address",
          "name": "account",
          "type": "address"
        }
      ],
      "name": "shares",
      "outputs": [
        {
          "internalType": "uint256",
          "name": "",
          "type": "uint256"
        }
      ],
      "stateMutability": "view",
      "type": "function"
    },
    {
      "inputs": [],
      "name": "symbol",
      "outputs": [
        {
          "internalType": "string",
          "name": "",
          "type": "string"
        }
      ],
      "stateMutability": "view",
      "type": "function"
    },
    {
      "inputs": [],
      "name": "totalBalance",
      "outputs": [
        {
          "internalType": "uint256",
          "name": "",
          "type": "uint256"
        }
      ],
      "stateMutability": "view",
      "type": "function"
    },
    {
      "inputs": [],
      "name": "totalPending",
      "outputs": [
        {
          "internalType": "uint256",
          "name": "",
          "type": "uint256"
        }
      ],
      "stateMutability": "view",
      "type": "function"
    },
    {
      "inputs": [],
      "name": "totalSupply",
      "outputs": [
        {
          "internalType": "uint256",
          "name": "",
          "type": "uint256"
        }
      ],
      "stateMutability": "view",
      "type": "function"
    },
    {
      "inputs": [
        {
          "internalType": "address",
          "name": "to",
          "type": "address"
        },
        {
          "internalType": "uint256",
          "name": "value",
          "type": "uint256"
        }
      ],
      "name": "transfer",
      "outputs": [
        {
          "internalType": "bool",
          "name": "",
          "type": "bool"
        }
      ],
      "stateMutability": "nonpayable",
      "type": "function"
    },
    {
      "inputs": [
        {
          "internalType": "address",
          "name": "from",
          "type": "address"
        },
        {
          "internalType": "address",
          "name": "to",
          "type": "address"
        },
        {
          "internalType": "uint256",
          "name": "value",
          "type": "uint256"
        }
      ],
      "name": "transferFrom",
      "outputs": [
        {
          "internalType": "bool",
          "name": "",
          "type": "bool"
        }
      ],
      "stateMutability": "nonpayable",
      "type": "function"
    },
    {
      "inputs": [
        {
          "internalType": "address",
          "name": "newOwner",
          "type": "address"
        }
      ],
      "name": "transferOwnership",
      "outputs": [],
      "stateMutability": "nonpayable",
      "type": "function"
    },
    {
      "inputs": [],
      "name": "vaultParams",
      "outputs": [
        {
          "internalType": "uint8",
          "name": "decimals",
          "type": "uint8"
        },
        {
          "internalType": "address",
          "name": "asset",
          "type": "address"
        },
        {
          "internalType": "uint56",
          "name": "minimumSupply",
          "type": "uint56"
        },
        {
          "internalType": "uint104",
          "name": "cap",
          "type": "uint104"
        }
      ],
      "stateMutability": "view",
      "type": "function"
    },
    {
      "inputs": [],
      "name": "vaultState",
      "outputs": [
        {
          "internalType": "uint16",
          "name": "round",
          "type": "uint16"
        },
        {
          "internalType": "uint104",
          "name": "lockedAmount",
          "type": "uint104"
        },
        {
          "internalType": "uint104",
          "name": "lastLockedAmount",
          "type": "uint104"
        },
        {
          "internalType": "uint128",
          "name": "totalPending",
          "type": "uint128"
        },
        {
          "internalType": "uint128",
          "name": "queuedWithdrawShares",
          "type": "uint128"
        }
      ],
      "stateMutability": "view",
      "type": "function"
    },
    {
      "inputs": [
        {
          "internalType": "uint256",
          "name": "amount",
          "type": "uint256"
        }
      ],
      "name": "withdrawInstantly",
      "outputs": [],
      "stateMutability": "nonpayable",
      "type": "function"
    },
    {
      "inputs": [
        {
          "internalType": "address",
          "name": "",
          "type": "address"
        }
      ],
      "name": "withdrawals",
      "outputs": [
        {
          "internalType": "uint16",
          "name": "round",
          "type": "uint16"
        },
        {
          "internalType": "uint128",
          "name": "shares",
          "type": "uint128"
        }
      ],
      "stateMutability": "view",
      "type": "function"
    },
    {
      "stateMutability": "payable",
      "type": "receive"
    }
  ],
  "bytecode": "0x604060a0815234620007255762003f6a803803806200001e816200072a565b9283398101818103610100811262000725576200003b8362000750565b906200004a6020850162000750565b848601519093906001600160401b0381116200072557816200006e91870162000765565b60608601519091906001600160401b03811162000725576080916200009591880162000765565b92607f1901126200072557855194608086016001600160401b03811187821017620005fb578752608081015160ff8116810362000725578652620000dc60a0820162000750565b602087015260c08101519066ffffffffffffff8216820362000725578688019190915260e001516001600160681b03811681036200072557606086015260016000558051906001600160401b038211620005fb5760045490600182811c921680156200071a575b6020831014620005da5781601f849311620006a8575b50602090601f83116001146200061d5760009262000611575b50508160011b916000199060031b1c1916176004555b8051906001600160401b038211620005fb5760055490600182811c92168015620005f0575b6020831014620005da5781601f84931162000584575b50602090601f8311600114620004f557600092620004e9575b50508160011b916000199060031b1c1916176005555b3315620004d15760018060a01b0319908160075416600755600654923383851617600655855160018060a01b0394853391167f8be0079c531659141344cd1fd0a4f28419497f9722a3daafe3b4186f6b6457e0600080a3848316156200046957508316928315620003ff5760208501511615620003955760608401516001600160681b0316156200032b57608052601154161760115560ff815116600b5490610100600160a81b03602084015160081b169066ffffffffffffff60a81b8585015160a81b169263ffffffff60e01b16171717600b55606060018060681b039101511660018060681b0319600c541617600c55600161ffff19600d541617600d55516137929081620007d8823960805181818160280152818161098501528181610f6c01528181611049015281816117bd01526132ad0152f35b845162461bcd60e51b815260206004820152603760248201527f5661756c74206361706163697479206d75737420626520706f7369746976652060448201527f2d20696e76616c696420636f6e66696775726174696f6e0000000000000000006064820152608490fd5b845162461bcd60e51b815260206004820152603460248201527f417373657420616464726573732063616e6e6f74206265207a65726f202d206960448201527f6e76616c696420636f6e66696775726174696f6e0000000000000000000000006064820152608490fd5b855162461bcd60e51b815260206004820152603560248201527f4b656570657220616464726573732063616e6e6f74206265207a65726f202d2060448201527f696e76616c696420636f6e66696775726174696f6e00000000000000000000006064820152608490fd5b62461bcd60e51b815260206004820152603360248201527f57424e4220616464726573732063616e6e6f74206265207a65726f202d20696e60448201527f76616c696420636f6e66696775726174696f6e000000000000000000000000006064820152608490fd5b8351631e4fbdf760e01b815260006004820152602490fd5b015190503880620001dc565b6005600090815293507f036b6384b5eca791c62761152d0c79bb0604c104a5fb6f4eb0703f3154bb3db091905b601f198416851062000568576001945083601f198116106200054e575b505050811b01600555620001f2565b015160001960f88460031b161c191690553880806200053f565b8181015183556020948501946001909301929091019062000522565b90915060056000526020600020601f840160051c810160208510620005d2575b90849392915b601f830160051c82018110620005c2575050620001c3565b60008155859450600101620005aa565b5080620005a4565b634e487b7160e01b600052602260045260246000fd5b91607f1691620001ad565b634e487b7160e01b600052604160045260246000fd5b01519050388062000172565b600460009081527f8a35acfbc15ff81a39ae7d344fd709f28e8600b4aa8c65c6b64bfe7fe36bd19b9350601f198516905b8181106200068f575090846001959493921062000675575b505050811b0160045562000188565b015160001960f88460031b161c1916905538808062000666565b929360206001819287860151815501950193016200064e565b60046000529091507f8a35acfbc15ff81a39ae7d344fd709f28e8600b4aa8c65c6b64bfe7fe36bd19b601f840160051c81016020851062000712575b90849392915b601f830160051c820181106200070257505062000159565b60008155859450600101620006ea565b5080620006e4565b91607f169162000143565b600080fd5b6040519190601f01601f191682016001600160401b03811183821017620005fb57604052565b51906001600160a01b03821682036200072557565b919080601f84011215620007255782516001600160401b038111620005fb576020906200079b601f8201601f191683016200072a565b92818452828287010111620007255760005b818110620007c357508260009394955001015290565b8581018301518482018401528201620007ad56fe60808060405260043610156100d9575b50361561001b57600080fd5b600b546001600160a01b037f000000000000000000000000000000000000000000000000000000000000000081169160081c168190036100a257330361005d57005b60405162461bcd60e51b815260206004820152601f60248201527f4f6e6c792057424e4220636f6e74726163742063616e2073656e6420424e42006044820152606490fd5b60405162461bcd60e51b815260206004820152600f60248201526e139bdd081848109390881d985d5b1d608a1b6044820152606490fd5b600090813560e01c90816306fdde03146124f257508063095ea7b31461243f578063146ca5311461241d57806318160ddd146123ff57806323b872dd146123115780632728f333146122b75780632775d01c1461207b5780632eb4a7ab1461205d578063313ce5671461203c5780633340d73c14611fb6578063355274ea14611f8f57806336efd16f14611f1b57806338bca726146119415780633aa03f17146118c65780633f23bb731461185c5780633f90916a1461183557806342220f341461178357806347786d37146116665780634b2431d914611648578063503c70aa1461162a5780635cbcec4e146115b85780636719b2ee146115565780636f31ab341461153557806370a08231146114fc578063715018a61461149457806379ba50971461140f5780637a9262a2146113c15780637cb647591461136c5780637e108d52146110f95780637fc8163514610fee57806387153eb114610fc45780638da5cb5b14610f9b5780638dd9500214610f5657806395d89b4114610e5457806399530b0614610e1a5780639fcc2d7514610dc5578063a9059cbb14610d93578063aced166114610d6a578063ad7a672f14610d4f578063b6b55f2514610cf1578063c0ce93f114610c59578063ce7c2ac214610c29578063d164cc1514610b43578063db006a7514610ab8578063dc9a153514610a92578063dd62ed3e14610a43578063e30c397814610a1a578063f02c5f431461093d578063f0b2c7e6146106f0578063f2fde38b14610682578063f656ba51146106525763f756fa210361000f573461064f578060031936011261064f5761033661297a565b3381526020600981526040822054906001600160801b03808360101c169061ffff8094169382156105e457600d5416841015610583573385526009835260408520805471ffffffffffffffffffffffffffffffff000019169055600e54906fffffffffffffffffffffffffffffffff196103b484608085901c612b1e565b60801b16911617600e55828452600a82526040842054926103f960ff600b54166103e060018711613556565b6103f36103ed87866135a8565b9161359a565b906135bb565b937fb7ee00edafdb5db3a1b52a5789a6b562eb48268842d113dbfe860b6f86e5f59560405180610444339442888b859094939260609260808301968352602083015260408201520152565b0390a3301561056a5730600052600182526040600020548181106105425790806000923084526001855203604083205580600354036003556040519081527fddf252ad1be2c89b69c2b068fc378daa952ba7f163c4a11628f55a4df523b3ef833092a381156104df5750806104bc6104c49233613294565b600f54612b1e565b600f556104d0336133f3565b6104d86134fa565b6001815580f35b6084906040519062461bcd60e51b82526004820152603660248201527f43616c63756c61746564207769746864726177616c20616d6f756e74206973206044820152751e995c9bc80b4818dbdb9d1858dd081cdd5c1c1bdc9d60521b6064820152fd5b60405163391434e360e21b815230600482015260248101919091526044810191909152606490fd5b604051634b637e8f60e11b815260048101859052602490fd5b60405162461bcd60e51b815260048101849052603360248201527f5769746864726177616c20726f756e64207374696c6c20616374697665202d2060448201527218d85b9b9bdd0818dbdb5c1b195d19481e595d606a1b6064820152608490fd5b60405162461bcd60e51b815260048101859052603760248201527f4e6f207769746864726177616c207265717565737420666f756e64202d20696e60448201527f697469617465207769746864726177616c2066697273740000000000000000006064820152608490fd5b80fd5b503461064f57602036600319011261064f5760406106766106716125f4565b612c5c565b82519182526020820152f35b503461064f57602036600319011261064f5761069c6125f4565b6106a4612716565b600780546001600160a01b0319166001600160a01b039283169081179091556006549091167f38d16b8cac22d99fc7c124b9cd0de2d3fa1faef420bfe791d8c362d765e227008380a380f35b503461064f57608036600319011261064f576040516080810181811067ffffffffffffffff8211176109275760405260043560ff8116810361092357815261073661260f565b6020820190815260443566ffffffffffffff8116810361091f5760408301908152606435906001600160681b0392838316830361091b576060850192835261077c612716565b83835116156108c45780516001600160a01b03161561086657600c549160ff858416965116600b5492610100600160a81b03905160081b169166ffffffffffffff60a81b905160a81b169263ffffffff60e01b16171717600b558282511680916001600160681b03191617600c558084036107f5578480f35b60407f5f86edbb9d92228a9edc3f0ebc0f001bda1ea345ac7335e0eeef3504b31d1a1c918151908682526020820152a1511660405191825260208201524260408201527f09ff4223a9f6e7f86b7559a59a28d2ea98820b80fa0f1177f7b4952bcfae597260603392a2388080808480f35b60405162461bcd60e51b815260206004820152603060248201527f417373657420616464726573732063616e6e6f74206265207a65726f20696e2060448201526f7661756c7420706172616d657465727360801b6064820152608490fd5b60405162461bcd60e51b815260206004820152602960248201527f5661756c7420636170616369747920706172616d65746572206d75737420626560448201526820706f73697469766560b81b6064820152608490fd5b8580fd5b8380fd5b8280fd5b634e487b7160e01b600052604160045260246000fd5b50602036600319011261064f576109526125f4565b61095a61297a565b61096b60ff60115460a01c1661282d565b8160018060a01b036109c181600b5460081c16916109ad817f0000000000000000000000000000000000000000000000000000000000000000168094146128ab565b6109b834151561291d565b84161515612a4e565b803b15610a0b578160049160405192838092630d0e30db60e41b825234905af18015610a0f576109f7575b506104d88234612d36565b610a0090612625565b610a0b5781386109ec565b5080fd5b6040513d84823e3d90fd5b503461064f578060031936011261064f576007546040516001600160a01b039091168152602090f35b503461064f57604036600319011261064f57610a5d6125f4565b6040610a6761260f565b9260018060a01b03809316815260026020522091166000526020526020604060002054604051908152f35b503461064f578060031936011261064f57602060ff60115460a01c166040519015158152f35b503461064f57602036600319011261064f57600435610ad561297a565b8015610ae4576104d890613133565b60405162461bcd60e51b815260206004820152603160248201527f536861726520726564656d7074696f6e20616d6f756e74206d7573742062652060448201527067726561746572207468616e207a65726f60781b6064820152608490fd5b503461064f57602036600319011261064f57610b5d6125f4565b610b65612716565b6001600160a01b039081168015610bbe5760115491816001600160601b0360a01b8416176011557f8437af8e3ddf7c1483b88150f5c2e92f0e03e4e538950a82ac9bc728fe73a49a60206040519242845233951692a480f35b60405162461bcd60e51b815260206004820152603960248201527f4e6577206b656570657220616464726573732063616e6e6f74206265207a657260448201527f6f202d20696e76616c696420636f6e66696775726174696f6e000000000000006064820152608490fd5b503461064f57602036600319011261064f576020610c51610c4b6106716125f4565b9061280a565b604051908152f35b503461064f57604036600319011261064f57610c736125f4565b6024359167ffffffffffffffff831161064f5750610c9760209236906004016126af565b60ff60115460a01c16918215610cb4575b50506040519015158152f35b610cea925060125490604051858101916001600160601b03199060601b16825260148152610ce181612639565b51902091613705565b3880610ca8565b503461064f57602036600319011261064f576104d8600435610d1161297a565b610d2260ff60115460a01c1661282d565b610d2d81151561291d565b610d373382612d36565b600b543090339060081c6001600160a01b031661299d565b503461064f578060031936011261064f576020610c51612bcb565b503461064f578060031936011261064f576011546040516001600160a01b039091168152602090f35b503461064f57604036600319011261064f57610dba610db06125f4565b602435903361272a565b602060405160018152f35b503461064f578060031936011261064f576080600b546001600160681b03600c541666ffffffffffffff6040519260ff8116845260018060a01b038160081c16602085015260a81c1660408301526060820152f35b503461064f578060031936011261064f576020610c51600354610e3b612bcb565b6001600160801b03600e54169060ff600b54169261364d565b503461064f578060031936011261064f576040518160055490600182811c91818416938415610f4c575b6020948585108114610f3857848752908115610f165750600114610ebd575b610eb985610ead8189038261268d565b604051918291826125ab565b0390f35b929450600583527f036b6384b5eca791c62761152d0c79bb0604c104a5fb6f4eb0703f3154bb3db05b828410610f035750505081610eb993610ead928201019338610e9d565b8054858501870152928501928101610ee6565b60ff191686860152505050151560051b8201019150610ead81610eb938610e9d565b634e487b7160e01b83526022600452602483fd5b92607f1692610e7e565b503461064f578060031936011261064f576040517f00000000000000000000000000000000000000000000000000000000000000006001600160a01b03168152602090f35b503461064f578060031936011261064f576006546040516001600160a01b039091168152602090f35b503461064f57602036600319011261064f5760406020916004358152600a83522054604051908152f35b50602036600319011261064f5760043567ffffffffffffffff8111610a0b5761101b9036906004016126af565b61102361297a565b60ff60115460a01c16156110c9575b508060018060a01b0361107181600b5460081c16917f0000000000000000000000000000000000000000000000000000000000000000168092146128ab565b61107c34151561291d565b803b156110c6578160049160405192838092630d0e30db60e41b825234905af18015610a0f576110b2575b506104d83334612d36565b6110bb90612625565b61064f5780386110a7565b50fd5b6110ee6110f39160125460405160208101903360601b825260148152610ce181612639565b612ab9565b38611032565b503461064f57602080600319360112610a0b5760043561111761297a565b8015611318573383526008825260408320546001600160681b038160101c161590811591611302575b506112f5575b61ffff91818184600d5416809533885260098352604088206001600160801b036040519161117383612639565b549283169283835260101c16938491015214600014611233579160096111bd611227937f921833ceaf37ce03fe265ef816a0c1cbaa7d1e96ddd76006b99922815eef7b6c9561280a565b915b6111c8836136be565b3388525260408620805462010000600160901b038360101b169062010000600160901b0319161790556111fc84303361272a565b6112088460105461280a565b6010556040805194855242602086015284015233929081906060820190565b0390a36104d8336133f3565b905061127c576112277f921833ceaf37ce03fe265ef816a0c1cbaa7d1e96ddd76006b99922815eef7b6c9160098491338852818152604088208761ffff198254161790556111bf565b60a4906040519062461bcd60e51b82526004820152604660248201527f50726576696f7573207769746864726177616c206d75737420626520636f6d7060448201527f6c65746564206265666f726520696e6974696174696e67206e65772077697468606482015265191c985dd85b60d21b6084820152fd5b6112fd612ff9565b611146565b6001600160801b03915060781c16151538611140565b60405162461bcd60e51b815260048101839052602660248201527f536861726520616d6f756e74206d7573742062652067726561746572207468616044820152656e207a65726f60d01b6064820152608490fd5b503461064f57602036600319011261064f57600435611389612716565b6012549080601255604051914283527f984c00998efd0661a0467e88aaca4aa3c2bf5957c069d271388c313dfdb4b45c60203394a480f35b503461064f57602036600319011261064f5760409081906001600160a01b036113e86125f4565b168152600960205220546001600160801b0382519161ffff8116835260101c166020820152f35b503461064f578060031936011261064f576007546001600160a01b03338183160361147c576001600160601b0360a01b8092166007556006549133908316176006553391167f8be0079c531659141344cd1fd0a4f28419497f9722a3daafe3b4186f6b6457e0600080a380f35b60405163118cdaa760e01b8152336004820152602490fd5b503461064f578060031936011261064f576114ad612716565b600780546001600160a01b03199081169091556006805491821690556000906001600160a01b03167f8be0079c531659141344cd1fd0a4f28419497f9722a3daafe3b4186f6b6457e08280a380f35b503461064f57602036600319011261064f576020906040906001600160a01b036115246125f4565b168152600183522054604051908152f35b503461064f578060031936011261064f5761154e61297a565b6104d8612ff9565b503461064f57602036600319011261064f576060906040906001600160a01b0361157e6125f4565b168152600860205220546001600160801b036040519161ffff811683526001600160681b038160101c16602084015260781c166040820152f35b503461064f57602036600319011261064f57600435801515809103610a0b576115df612716565b6011805460ff60a01b191660a083901b60ff60a01b161790556040514281523391907f5a25a7df477e3700694e85a52230f2a87684004a3b36d882bc2918198c5579aa90602090a380f35b503461064f578060031936011261064f576020600f54604051908152f35b503461064f578060031936011261064f576020601054604051908152f35b503461064f57602036600319011261064f57600435611683612716565b801561172d5761169281613677565b7f09ff4223a9f6e7f86b7559a59a28d2ea98820b80fa0f1177f7b4952bcfae5972611727600c546001600160681b0390818116918516906001600160681b03191617600c557f5f86edbb9d92228a9edc3f0ebc0f001bda1ea345ac7335e0eeef3504b31d1a1c60408051838152866020820152a160405191829133954291846040919493926060820195825260208201520152565b0390a280f35b60405162461bcd60e51b815260206004820152602860248201527f5661756c74206361706163697479206d7573742062652067726561746572207460448201526768616e207a65726f60c01b6064820152608490fd5b508060031936011261064f5761179761297a565b6117a860ff60115460a01c1661282d565b60018060a01b036117e581600b5460081c16917f0000000000000000000000000000000000000000000000000000000000000000168092146128ab565b6117f034151561291d565b81813b1561064f57604051630d0e30db60e41b8152918290600490829034905af18015610a0f5761182657506104d83334612d36565b61182f90612625565b386110a7565b503461064f578060031936011261064f5760206001600160801b03600e5416604051908152f35b503461064f57602036600319011261064f576020610c5161187b6125f4565b6103f36103ed60ff600b5416926118b5610c4b6118af8660035461189d612bcb565b6001600160801b03600e54169161364d565b92612c5c565b6118c160018311613556565b6135a8565b503461064f57602036600319011261064f576020610c516118e5612b2b565b610c4b600354916103f36103ed61193261190e6001600160801b03968760808701511690612b1e565b600f5496606061192089600435612b1e565b9601511660ff600b541695869261364d565b6010546118c160018311613556565b503461064f57602036600319011261064f576011546001600160a01b03163303611ec45761196d61297a565b600b5466ffffffffffffff8160a81c1660043510611e635761198d612b2b565b805161ffff16916001831115611e5c576000198301838111611e48578452600a6020526040842054905b837f3180bc850607139589b517b4f1480820c2973c955706dcf81d3a20de03670ddc611a51611a226119f96003546001600160801b0360808a01511690612b1e565b611a07600f54600435612b1e565b95606089019660ff6001600160801b0389511692169261364d565b94838952600a6020528560408a2055604051918291874291846040919493926060820195825260208201520152565b0390a26001600160801b0319600e5416600e5560018401808511611e34579061ffff6001600160801b03921661ffff19600d541617600d55511692611abb82611ab660ff600b541696611ab06001841198611aab8a613556565b61359a565b906135a8565b6135bb565b3015611e1b57611acd8160035461280a565b600355308652600160205260408620818154019055604051818152867fddf252ad1be2c89b69c2b068fc378daa952ba7f163c4a11628f55a4df523b3ef60203093a36020600f5494611b5c611b4460105497611b2b600b549a613556565b610c4b611b38898b6135a8565b6103f360ff8d1661359a565b9687600f556001600160801b0360808401511661280a565b611b65816136be565b6001600160801b03600e549181199060801b16911617600e5587601055015194600d5495611b9586600435612b1e565b96611b9f88613677565b62010000600160e01b03191660789190911b6cffffffffffffffffffffffffff60781b1617601087901b62010000600160781b031617600d556011546040516370a0823160e01b808252306004830152956001600160a01b03928316949093909260089190911c1690602081602481855afa8015611e105788918b91611dd3575b5094611c51611c5793927f60b4f6d9a68da804c70ff3760573bd80bd7acd02c024b51c27d7e2cd6b0d6c4c97612b1e565b91612b7b565b60408051858152602081018490529081018890527f509ab3a60bcf0e5158f6bdabea90d540867b8a80428adae5bad92fe0a7e604d190606090a16040805192835260208301889052820152426060820152608090a2600b546040519182523060048301526020908290602490829060081c6001600160a01b03165afa908115611dc8578491611d74575b506040805191825260208201939093529182018190524260608301527f3be085f99564585dda621696bf4863a279526ed69135902484b72f30dd21b50d9160a091907f520344e0b7ced43f65bcabcab76466b2b97a171bb2d26075f3702c53cca462cf90608090a16003549060405191600435835260208301528460408301526060820152426080820152a16001815580f35b9190506020823d602011611dc0575b81611d906020938361268d565b8101031261091f5790517f520344e0b7ced43f65bcabcab76466b2b97a171bb2d26075f3702c53cca462cf611ce1565b3d9150611d83565b6040513d86823e3d90fd5b929150506020823d602011611e08575b81611df06020938361268d565b81010312611e045790518790611c51611c20565b8980fd5b3d9150611de3565b6040513d8c823e3d90fd5b60405163ec442f0560e01b815260048101879052602490fd5b634e487b7160e01b86526011600452602486fd5b634e487b7160e01b85526011600452602485fd5b83906119b7565b60405162461bcd60e51b815260206004820152603360248201527f43757272656e742062616c616e63652062656c6f77206d696e696d756d206f70604482015272195c985d1a5bdb985b081d1a1c995cda1bdb19606a1b6064820152608490fd5b60405162461bcd60e51b815260206004820152602960248201527f4163636573732064656e6965643a206b65657065722070726976696c65676573604482015268081c995c5d5a5c995960ba1b6064820152608490fd5b503461064f57604036600319011261064f576104d8600435611f3b61260f565b611f4361297a565b611f5460ff60115460a01c1661282d565b611f5f82151561291d565b6001600160a01b0390611f7f90611f798184161515612a4e565b83612d36565b600b5460081c163090339061299d565b503461064f578060031936011261064f5760206001600160681b03600c5416604051908152f35b503461064f57604036600319011261064f5760243560043567ffffffffffffffff821161092357611fee6104d89236906004016126af565b611ff661297a565b60ff60115460a01c1615612011575b50610d2d81151561291d565b6110ee6120369160125460405160208101903360601b825260148152610ce181612639565b38612005565b503461064f578060031936011261064f57602060ff600b5416604051908152f35b503461064f578060031936011261064f576020601254604051908152f35b503461064f57602036600319011261064f5760043561209861297a565b3382526008602052604082209061ffff80600d541690821561225e57818454918216036121f3576001600160681b03809160101c1693838510612190578461210f859261213b946120ec856121879a612b1e565b825462010000600160781b031916911660101b62010000600160781b0316179055565b600e546001600160801b0361212684828416612b1e565b16906001600160801b03191617600e55612b1e565b7f084d1135a65a876d91d5e7fe130393a1ab87d64ebc96d7f4054c76e3c8be8d966040518061217e33944288846040919493926060820195825260208201520152565b0390a333613294565b6104d0336133f3565b60405162461bcd60e51b815260206004820152603560248201527f496e73756666696369656e74206465706f7369742062616c616e636520666f72604482015274081c995c5d595cdd1959081dda5d1a191c985dd85b605a1b6064820152608490fd5b60405162461bcd60e51b815260206004820152603c60248201527f496e7374616e74207769746864726177616c206f6e6c7920617661696c61626c60448201527f6520666f722063757272656e7420726f756e64206465706f73697473000000006064820152608490fd5b60405162461bcd60e51b815260206004820152602b60248201527f5769746864726177616c20616d6f756e74206d7573742062652067726561746560448201526a72207468616e207a65726f60a81b6064820152608490fd5b503461064f578060031936011261064f5760a0600d54600e546040519161ffff811683526001600160681b0390818160101c16602085015260781c1660408301526001600160801b038116606083015260801c6080820152f35b503461064f57606036600319011261064f5761232b6125f4565b61233361260f565b6001600160a01b03821680845260026020908152604080862033875290915284205460443593916000198210612370575b5050610dba935061272a565b8482106123d95780156123c05733156123a757848692604092610dba98526002602052828420338552602052039120553880612364565b604051634a1406b160e11b815260048101879052602490fd5b60405163e602df0560e01b815260048101879052602490fd5b604051637dc7a0d960e11b81523360048201526024810183905260448101869052606490fd5b503461064f578060031936011261064f576020600354604051908152f35b503461064f578060031936011261064f57602061ffff600d5416604051908152f35b503461064f57604036600319011261064f576124596125f4565b6024359033156124d9576001600160a01b03169182156124c15760408291338152600260205281812085825260205220556040519081527f8c5be1e5ebec7d5bd14f71427d1e84f3dd0314c0f7b2291e5b200ac8c7c3b92560203392a3602060405160018152f35b60249060405190634a1406b160e11b82526004820152fd5b60405163e602df0560e01b815260048101849052602490fd5b905034610a0b5781600319360112610a0b578160045490600182811c918184169384156125a1575b6020948585108114610f3857848752908115610f16575060011461254857610eb985610ead8189038261268d565b929450600483527f8a35acfbc15ff81a39ae7d344fd709f28e8600b4aa8c65c6b64bfe7fe36bd19b5b82841061258e5750505081610eb993610ead928201019338610e9d565b8054858501870152928501928101612571565b92607f169261251a565b6020808252825181830181905290939260005b8281106125e057505060409293506000838284010152601f8019910116010190565b8181018601518482016040015285016125be565b600435906001600160a01b038216820361260a57565b600080fd5b602435906001600160a01b038216820361260a57565b67ffffffffffffffff811161092757604052565b6040810190811067ffffffffffffffff82111761092757604052565b60a0810190811067ffffffffffffffff82111761092757604052565b6060810190811067ffffffffffffffff82111761092757604052565b90601f8019910116810190811067ffffffffffffffff82111761092757604052565b9080601f8301121561260a5781359067ffffffffffffffff8211610927578160051b604051936020936126e48584018761268d565b8552838086019282010192831161260a578301905b828210612707575050505090565b813581529083019083016126f9565b6006546001600160a01b0316330361147c57565b916001600160a01b038084169283156127f157169283156127d85760009083825260016020526040822054908382106127a6575091604082827fddf252ad1be2c89b69c2b068fc378daa952ba7f163c4a11628f55a4df523b3ef95876020965260018652038282205586815220818154019055604051908152a3565b60405163391434e360e21b81526001600160a01b03919091166004820152602481019190915260448101839052606490fd5b60405163ec442f0560e01b815260006004820152602490fd5b604051634b637e8f60e11b815260006004820152602490fd5b9190820180921161281757565b634e487b7160e01b600052601160045260246000fd5b1561283457565b60a460405162461bcd60e51b815260206004820152604460248201527f5661756c74206163636573732072657374726963746564202d20636f6e74616360448201527f742061646d696e6973747261746f7220666f722077686974656c6973742061636064820152636365737360e01b6084820152fd5b156128b257565b60405162461bcd60e51b815260206004820152603b60248201527f496e76616c6964206f7065726174696f6e202d2074686973207661756c74206460448201527f6f6573206e6f742061636365707420424e42206465706f7369747300000000006064820152608490fd5b1561292457565b60405162461bcd60e51b815260206004820152602860248201527f4465706f73697420616d6f756e74206d7573742062652067726561746572207460448201526768616e207a65726f60c01b6064820152608490fd5b60026000541461298b576002600055565b604051633ee5aeb560e01b8152600490fd5b6040516323b872dd60e01b60208201526001600160a01b0392831660248201529290911660448301526064808301939093529181526129e4916129df82612655565b6129e6565b565b906000602091828151910182855af115612a42576000513d612a3957506001600160a01b0381163b155b612a175750565b604051635274afe760e01b81526001600160a01b039091166004820152602490fd5b60011415612a10565b6040513d6000823e3d90fd5b15612a5557565b60405162461bcd60e51b815260206004820152603660248201527f42656e656669636961727920616464726573732063616e6e6f74206265207a656044820152751c9bc80b481a5b9d985b1a59081c9958da5c1a595b9d60521b6064820152608490fd5b15612ac057565b60405162461bcd60e51b815260206004820152603060248201527f4163636573732064656e696564202d20696e76616c69642077686974656c697360448201526f1d081c1c9bdbd9881c1c9bdd9a59195960821b6064820152608490fd5b9190820391821161281757565b60405190612b3882612655565b81600d5461ffff811682526001600160681b0390818160101c16602084015260781c1660408201526080600e546001600160801b0381166060840152811c910152565b60405163a9059cbb60e01b60208201526001600160a01b039092166024830152604480830193909352918152608081019167ffffffffffffffff831182841017610927576129e4926040526129e6565b600d54600b546040516370a0823160e01b8152306004820152929160101c6001600160681b0316906020908490602490829060081c6001600160a01b03165afa928315612a4257600093612c29575b5091612c26919261280a565b90565b6020813d8211612c54575b81612c416020938361268d565b8101031261091f57519250612c26612c1a565b3d9150612c34565b60018060a01b03169060008281526008602052604090818120825190612c8182612671565b54600161ffff916001600160801b03838216918286526001600160681b038160101c16602087015260781c168685015210612cea579081612cdc92600d5416908251168452600a602052848420549060ff600b5416926135db565b938152600160205220549190565b505092835260016020528220549190565b80546fffffffffffffffffffffffffffffffff60781b191660789290921b6fffffffffffffffffffffffffffffffff60781b16919091179055565b9061ffff9182600d541690612d5281612d4d612bcb565b61280a565b906001600160681b039485600c54168311612f9e57600b549266ffffffffffffff8460a81c1611612f2357612eeb957f7162984403f6c73c8639375d45a9187dfd04602231bd8e587c415718b5f7e5f99260018060a01b0387169460009386855260086020528760409283872095845196612dcc88612671565b54938a612e0f82871694858b5260208b0195858960101c1687526001600160801b03809960781c168a8d01528c52600a60205260ff898d2054911690878c6135db565b9382899a51168614612ef3575b50859289612e9d96959389829d612e9595612e3a612ee39e9f613677565b825199612e468b612671565b8a528560208b019516855288838b0198168852815260086020522096511661ffff198754161786555116849062010000600160781b0382549160101b169062010000600160781b031916179055565b511690612cfb565b600e5490612ead8582841661280a565b612eb6816136be565b16906001600160801b03191617600e55519283924290846040919493926060820195825260208201520152565b0390a36133f3565b6129e46134fa565b88995092612e9591612e9d96959389612f13612ee39c858c99511661280a565b9c9b505093959650915092612e1c565b60405162461bcd60e51b815260206004820152604760248201527f5472616e73616374696f6e20776f756c6420726573756c7420696e2062616c6160448201527f6e63652062656c6f77206d696e696d756d206f7065726174696f6e616c2074686064820152661c995cda1bdb1960ca1b608482015260a490fd5b60405162461bcd60e51b815260206004820152602d60248201527f5472616e73616374696f6e20776f756c6420657863656564207661756c74206360448201526c185c1858da5d1e481b1a5b5a5d609a1b6064820152608490fd5b60003381526020906008825260409081812082519061301782612671565b549261ffff92838516908184526001600160681b038660101c16878501526001600160801b03809660781c168385015284600d5416918152600a87526130688382205460ff600b54169084876135db565b9586156131295785856130ca60019387967fe02f6383e19e87c24e0c03e2cd5dbd05156cb29a1b0f3dbca1fa3430e444f63d9a6130fe9a51161061310a575b6130b08b6136be565b6130ba8b80612b1e565b1633865260088c52868620612cfb565b6130d589333061272a565b511697338352522054905191829133954290846040919493926060820195825260208201520152565b0390a36129e4336133f3565b33865260088c52868620805462010000600160781b03191690556130a7565b5050505050505050565b6000903382526020916008835260409081812082519061315282612671565b549061ffff918281168083526001600160681b038260101c16888401526001600160801b03809260781c168684015283600d5416908552600a88526131a28686205460ff600b54169083866135db565b9087156132895781881161321f5793836130ca6130fe97946130ba8b6001968e8d9b887fe02f6383e19e87c24e0c03e2cd5dbd05156cb29a1b0f3dbca1fa3430e444f63d9f9c5116106131ff575b506131fa826136be565b612b1e565b338a5260089052898920805462010000600160781b03191690558e6131f0565b865162461bcd60e51b8152600481018a9052603860248201527f52657175657374656420726564656d7074696f6e20657863656564732061766160448201527f696c61626c6520756e72656465656d65642073686172657300000000000000006064820152608490fd5b505050505050505050565b600b5460081c6001600160a01b039081169291906000907f0000000000000000000000000000000000000000000000000000000000000000168085146132df5750506129e492612b7b565b80919394503b1561092357828091602460405180948193632e1a7d4d60e01b83528960048401525af180156133e8576133d5575b508180809481935af1903d156133cf573d9067ffffffffffffffff82116133bb576040519161334c601f8201601f19166020018461268d565b825260203d92013e5b1561335c57565b60405162461bcd60e51b815260206004820152603160248201527f4e617469766520424e42207472616e73666572206661696c6564202d207472616044820152701b9cd858dd1a5bdb881c995d995c9d1959607a1b6064820152608490fd5b634e487b7160e01b81526041600452602490fd5b50613355565b6133e190929192612625565b9038613313565b6040513d85823e3d90fd5b7f95fe9f7c4c64bac110a37647dec99c1f3dd428ba78e733df39eb23d40b52674460a061341f83612c5c565b93600180841b0316936000908582526008602052604080832091602082519361344785612671565b549461ffff9081871686528286016001600160681b0390818960101c1681526001600160801b03809960781c16878901528c83526009855286832087519061348e82612639565b5499858b169a8b835260101c169586910152838398511693600d54168094146134ef575b5050951015806134e6575b6134de575b50815194855260208501528301526060820152426080820152a2565b9350386134c2565b508015156134bd565b5116955038806134b2565b7f3be085f99564585dda621696bf4863a279526ed69135902484b72f30dd21b50d60a0613525612bcb565b6003546001600160801b03600e5416600f5491604051938452602084015260408301526060820152426080820152a1565b1561355d57565b60405162461bcd60e51b8152602060048201526015602482015274496e76616c6964206173736574506572536861726560581b6044820152606490fd5b604d811161281757600a0a90565b8181029291811591840414171561281757565b81156135c5570490565b634e487b7160e01b600052601260045260246000fd5b929061ffff845116908115159182613643575b5050613606575050604001516001600160801b031690565b604061363a8493611ab66001600160801b0394611ab06001600160681b036020612c269a01511691611aab60018611613556565b9201511661280a565b10905038806135ee565b9190926136599061359a565b9282156136715792611ab0611ab692612c2695612b1e565b50505090565b6001600160681b031061368657565b60405162461bcd60e51b815260206004820152601060248201526f13dd995c999b1bddc81d5a5b9d0c4c0d60821b6044820152606490fd5b6001600160801b03106136cd57565b60405162461bcd60e51b815260206004820152601060248201526f09eeccae4ccd8deee40ead2dce86264760831b6044820152606490fd5b919091805180613716575b50501490565b91906020908180820191600595861b0101925b81518111851b90815282825191185281604060002091019383851015613750579390613729565b5092505050388061371056fea2646970667358221220da76df894170d739aae0ef06b7f65ff0d79c54097ac9a6827714221b5c19d1d564736f6c63430008140033",
  "linkReferences": {},
  "deployedLinkReferences": {}
}